:020000040000FA
:10000000008000102D0200003502000037020000C1
:10001000390200003B0200003D0200000000000029
:100020000000000000000000000000006903000064
:100030004102000000000000E10300001D04000078
:10004000470200004702000047020000470200008C
:10005000470200004702000047020000470200007C
:10006000470200004702000047020000470200006C
:10007000470200004702000047020000470200005C
:10008000470200004702000047020000470200004C
:10009000470200004702000047020000470200003C
:1000A000470200004702000047020000470200002C
:1000B000470200004702000047020000470200001C
:1000C0004702000000F002F800F096F80AA090E85D
:1000D000000C82448344AAF10107DA4501D100F003
:1000E0008BF8AFF2090EBAE80F0013F0010F18BF3A
:1000F000FB1A43F001031847F88600001887000038
:10010000103A24BF78C878C1FAD8520724BF30C843
:1001100030C144BF04680C60704700000023002415
:1001200000250026103A28BF78C1FBD8520728BF07
:1001300030C148BF0B6070476E2900F0A38770295B
:1001400000F01F82662907F08C87652907F08987F0
:10015000672907F08687612907F0858703681B0AEE
:1001600028BF41F08001692900F05087642900F020
:100170004D87752900F04A876F2901F07280782930
:1001800000F0EB81E92901F00D80E42901F00A80FB
:10019000F52901F00780EF2901F06F80F82900F0C0
:1001A000EA810368DB0928BF41F08001632902F07E
:1001B0005583732902F05A83E32902F08583F329DA
:1001C00002F08A83002070471FB59DE8030000F00D
:1001D00029FE03F001F904000020002107F0D6FCFD
:1001E000401C60600020002107F0BAFCE06001F0D4
:1001F00045FE00F0D7FD1FBD04F0D8FD084B094CAB
:100200001860226004F052FE05F0B0FB07F08EF992
:100210000548002105F0FAFC05F0DCFBFEE70000D4
:100220004C010010500100103801001006488047B2
:1002300006480047FEE7FEE7FEE7FEE7FEE7FEE7CB
:10024000FEE7FEE7FEE7FEE771430000C5000000A1
:10025000004870473C1400100B3020F00700704736
:100260002DE9F04117460E460446FFF7F5FFA04280
:10027000054633D9002F1CBF06F10C0004F0D2FD57
:1002800030467468F4B12168A94217D305F1080219
:1002900091423CBF6168416007D3626861194A605E
:1002A0002268521B0A6041602560002F1CBF06F1C6
:1002B0000C0004F0EDFD201DBDE8F08120466468CF
:1002C000002CE0D12946304600F098FD0028D7D117
:1002D000002F1CBF06F10C0004F0DAFD0020BDE881
:1002E000F08110B5044600F080FD01682046BDE8AD
:1002F00010400122B4E7704770477047FFFFFFFFCF
:1003000080F309887047EFF309807047684680F3EF
:10031000098804480078C00714BF0220032080F336
:1003200014887047BC820000DFF818C0EFF3058323
:100330001B0618BF6047EFF31483DB0708BF604755
:1003400000DF7047555F0000DFF818C0EFF305834A
:100350001B0618BF6047EFF31483DB0708BF604735
:1003600000DF704741610000EFF30980816911F8F7
:10037000021CF1B990E80F10E047EFF3098C8CE80C
:100380000700144B93E8060091420FD039B12CE9D5
:10039000F00FC1F82CC00CB406F02AFB0CBC1A609C
:1003A000D2F82CC0BCE8F00F8CF309886FF0020E75
:1003B000704710B5084A1268914209D8074C54F8A2
:1003C000214090E80F10A047EFF3098C8CE80F0054
:1003D00010BD0000100100105843000058430000F9
:1003E00006F098F90C4B93E80600914210D0EFF319
:1003F000098C2CE9F00FC1F82CC00CB406F0F8FA07
:100400000CBC1A60D2F82CC0BCE8F00F8CF3098841
:100410006FF0020E704700001001001006F0D4FBD0
:10042000E0E7000005F082FC06F0CEFBDAE7000012
:1004300070B516460D46041F002808BF70BD002E7B
:100440001CBF05F10C0004F0EDFC2B465868002899
:1004500018BFA04238BF0346F8D31968CA18A24291
:1004600018BF5C6003D122681C46114419602168E2
:100470000A19824218BF606004D142686260006855
:1004800008442060002E1CBF05F10C0004F000FDA4
:1004900070BD10B5044600F0A8FC01682046BDE818
:1004A00010400122C4E700001CB50C46064B7B44FB
:1004B00069460090204600F0FEFD04460020694693
:1004C00000F00CFE20461CBD2B0C00000B46014624
:1004D000184602F0CFB900000FB41CB5084B06AAAD
:1004E0007B4469460090059800F0E5FD0446002035
:1004F000694600F0F3FD20461CBC5DF814FB0000CB
:10050000F90B0000F0B40D460188090502D5214C15
:100510007C4402E01F4C7C440E34002100F1240690
:1005200008E002F00F071209E75D42EA03721B09B7
:100530007754491C52EA0307F3D1027800231207CB
:1005400004D5702D06D009B1022311342246F0BC27
:1005500000F002BD01231034F8E770B504460D46E3
:100560002146106800F0C6FC024629462046BDE838
:1005700070400023C6E7D21D22F00703D3E9002311
:10058000C0E70368126843F0200303600823C361D7
:100590000023B7E7087E00002DE9F05F8946044696
:1005A0004FF0000ADFF874B1FB44C0F820A02046E9
:1005B000E1688847002874D0252806D0D4E90121B5
:1005C0009047206A401C2062F1E700265F462046E3
:1005D000E16888472028054607DB312D05D27819C8
:1005E00010F8200C08B10643F1E7B00701D526F05A
:1005F0000406C4F81CA00027C4F818A02A2D09D0AE
:10060000284604F007FC38B304EB8708303DC8F8EF
:10061000185019E059F8041B204604EB8702916139
:10062000E1688847012F054618D1E069002820DAE3
:1006300026F020061DE0D8F8180000EB800005EB3E
:1006400040003038C8F818002046E1688847054661
:1006500004F0E0FB0028EED1012F0AD02E2D08D1A6
:100660002046E16888477F1C0546022F46F0200699
:10067000C4DBA069002803DA404246F00106A0610D
:10068000F00701D026F010066C2D0BD0682D09D094
:100690004C2D39D06A2D35D0742D35D07A2D33D0EC
:1006A00016E038E0E1682F4620468847B842054604
:1006B00009D16C2F26D04FF48060E16806432046B4
:1006C0008847054604E06C2F1AD04FF4807006432B
:1006D0000DB3A5F14100192802D8203546F4006673
:1006E0004A462946204626604E46FFF725FD80B142
:1006F00001280BD0F61D26F0070000F1080956E787
:100700004020E4E78020D8E70020D6E706F104097E
:100710004DE7284652E7206ABDE8F09F987D00002B
:1007200000B589B000926A4602F010FD09B000BD24
:100730000FB400B58DB010A9099000910B904FF047
:10074000FF300A9000200C90064878440690064836
:1007500078446A4607900F9909A800F0C9FE0DB0C9
:100760005DF814FBC30D0000DB0D00002DE9FF5FF9
:100770001D464FF0FF3B91464FF000085F46D5E91C
:100780000146A96901987F1C8847296A82468847E3
:100790000028F6D1BAF1FF3F0CD0002E24F4C0643B
:1007A00019DD600614D5BAF12B0F09D0BAF12D0F5F
:1007B0000ED103E0584604B0BDE8F09F44F48064D5
:1007C000A96901987F1C8847761E8246002E02DDAB
:1007D000BAF1300F03D0B9F1000F26D032E0A96989
:1007E000761E01987F1C44F400748847002E8246D0
:1007F00005DDBAF1780F06D0BAF1580F03D0B9F180
:10080000000F10D01EE0B9F1000F02D0B9F1100FA7
:1008100018D1A969761E01987F1C24F400748847BA
:100820008246102002E0082000E00A20814609E00C
:10083000A96908FB0908761E01987F1C44F400741E
:1008400088478246002E05DD4946504600F020FDCF
:100850000028EDDAE96901988847A00502D46FF015
:100860000100A8E7E00725D1600613D5600502D591
:10087000C8F1000000E0404629680A1D2A600968A6
:10088000220501D5087015E0220701D5088011E086
:1008900008600FE02868011D29600068210502D565
:1008A00080F8008006E0210702D5A0F8008001E072
:1008B000C0F8008038467EE711B14FF4807201E045
:1008C0004FF480624FF4007301F0A4BA2DE9F047B1
:1008D00004464FF000094FF0FF37C568D4E904869D
:1008E000A80707D0204601F051FA304604F0E2FA9A
:1008F000002802DA3846BDE8F087280502D54046D0
:10090000FFF7C7FD4C21204600F0E4F9206D20F0F0
:10091000010020654846EEE770B5044600F14C053D
:10092000284604F07FFA204604F000FD04462846DD
:1009300004F0AEFA204670BD70B505460A4E30464A
:1009400004F070FA05F14C04204604F06BFA2846D6
:10095000FFF7BCFF0546204604F09AFA304604F043
:1009600097FA284670BD0000800100102DE9F04183
:10097000044600F14C07384604F054FAE068810759
:1009800012D0800601D5A66A04E0A1696068084417
:100990002169461A204601F0F9F900220546314640
:1009A000204601F043F900E00025384604F070FAD3
:1009B0002846BDE8F0812DE9F04118B1BDE8F041CD
:1009C000FFF7D4BF0B4E0025304604F02BFA0A4C3B
:1009D0006F1E07E02046FFF7C9FF00B13D46206DBE
:1009E00020F00104002CF5D1304604F051FA2846DD
:1009F000DFE70000800100109C1400102DE9F04793
:100A000016468846814602F14C07384604F00AFA39
:100A10003046FFF75BFF18F8010B61280AD07228F7
:100A200002D077283FD102E00125002405E002250D
:100A3000042402E0082448F2020518F8010B2B28D0
:100A400006D0622809D018F8010C74280AD00BE0EF
:100A500045F0030544F00204EFE745F0040544F0D7
:100A60000104EAE744F010044846214604F060FA25
:100A7000411C18D00021316171604FF40071F560A4
:100A8000F1617061200704D530460222002101F097
:100A9000CDF8306D40F001003065384604F0F8F9CB
:100AA0003046BDE8F0870026F7E72DE9F04115460E
:100AB0000E460746204C204604F0B4F92A4631463B
:100AC0003846FFF79BFF0546204604F0E1F928462B
:100AD000BDE8F0812DE9F0410E468046164D2846CE
:100AE00004F0A0F9154C206DC10704D0410804D0D2
:100AF00020F00104F7E7224612E05420FFF7F1FB53
:100B0000070017D0206D47F00101084354212065EC
:100B1000384600F0DFF807F14C0004F093F93A464C
:100B200031464046FFF76AFF0446284604F0B0F914
:100B30002046CDE70024F8E7800100109C14001047
:100B4000401ECAB210F8011F8A4202D00029F9D112
:100B50000020704740EA0103024630B59B0710D1E0
:100B60004FF0013400E008C208C91D1B9D4315EA7F
:100B7000C41FF8D013F0FF0102F8011B0DD01B0AAF
:100B8000F8E711F8013B002B02F8013B05D011F802
:100B9000013B002B02F8013BF3D130BD10B5431CE3
:100BA00002E010F8011B71B18107FAD14FF0013258
:100BB00002C88C1A8C4314EAC211F9D0C01A0A0672
:100BC00003D0C01E10BDC01A10BD0A0401D0801E83
:100BD00010BD0902FCD0401E10BD40EA010370B5F3
:100BE0009B072ED14FF00136042A2AD308C810C91A
:100BF0009D1B9D43121F15EAC61517D0D8B2E1B24E
:100C0000401A50EA056110D198B2A1B2401A50EAD8
:100C100005410AD123F07F4024F07F41401A50EA79
:100C2000052102D1180EA0EB146070BDA342DBD0E9
:100C300018BA21BA884201D9012070BD4FF0FF30A7
:100C400070BD0AB9002070BD10F8013B11F8014BCE
:100C500063B1A3420AD1521E08D010F8013B11F82B
:100C6000014B1BB1A34201D1521EEDD1181B70BD27
:100C700010B5203AC0F00B80B1E81850203AA0E837
:100C80001850B1E81850A0E81850BFF4F5AF5FEA6B
:100C9000027C24BFB1E81850A0E8185044BF18C91E
:100CA00018C0BDE810405FEA827C24BF51F8043BC5
:100CB00040F8043B08BF7047D20728BF31F8023B19
:100CC00048BF11F8012B28BF20F8023B48BF00F8AD
:100CD000012B70474FF0000200B51346944696462C
:100CE000203922BFA0E80C50A0E80C50B1F120013F
:100CF000BFF4F7AF090728BFA0E80C5048BF0CC0ED
:100D00005DF804EB890028BF40F8042B08BF70474A
:100D100048BF20F8022B11F0804F18BF00F8012BBC
:100D2000704700004FF0013C50F8042B51F8043B91
:100D30009A4221D1A2EB0C03934313EACC1317D1AF
:100D400050F8042B51F8043B9A4215D1A2EB0C0346
:100D5000934313EACC130BD150F8042B51F8043B06
:100D60009A4209D1A2EB0C03934313EACC13DBD0D4
:100D70004FF00000704700BFD01A01BAB1FA81F1FC
:100D800001F0180122FA01F0CB40C1F12001DBB2E1
:100D9000C0B2C01A2CFA01F3D11A914311EAC3115F
:100DA000E6D1704770B5064C7C44064D7D4403E0A7
:100DB000206820448047241DAC42F9D170BD00005A
:100DC000A07B0000A07B00002DE9F04117460E46F5
:100DD000054633B107FB0354E41B2046B047A54248
:100DE000FAD1A5F10800BDE8F08110B5FFF730FA9F
:100DF000083010BD704770477047704738B50446DB
:100E00000A4600206946AFF30080002808BF38BDBD
:100E100002460099204601F01CF9012038BD01204E
:100E200002F0ACBAF8B5AFF30080054600200C46DE
:100E3000102000BF0646A819A0420DD932466946C7
:100E40000020AFF30080070008BF02F097FA009877
:100E5000A04218BF0546C419FFF7C7FF0560074643
:100E6000F01D20F007004619284600F00AF8B442A9
:100E700008BFF8BDA21B31463868BDE8F84001F054
:100E8000E8B800210160C0E901100C3003F0DABFBE
:100E90001020704770B5044685690068C10601D509
:100EA000302600E02026C00707D070BDD4E901211C
:100EB00030469047206A401C20626D1EF6D570BDFA
:100EC00070B5044685690078C00707D170BDD4E9C4
:100ED000012120209047206A401C20626D1EF6D51B
:100EE00070BD09684A0501D540B27047C905FCD5F7
:100EF00000B2704709684A0501D5C0B27047C905FC
:100F0000FCD580B2704770B50C460546012A05D065
:100F10002878800600D5EA69002302E0012305E075
:100F20005B1C934202D2E05C0028F9D1A869E61864
:100F3000C01AA861286A184428622846FFF7AAFF49
:100F400004E0D5E9012114F8010B9047B442F8D32D
:100F50002846FFF7B5FF70BD2DE9F0470D469946CD
:100F60009246044600F124080168880604D5E06929
:100F700021F01001216000E00120A84201DD471BA3
:100F800000E00027A1697A1902EB0900081AA061A4
:100F90002078C00602D42046FFF77CFF002608E038
:100FA000D4E901211AF806009047206A401C761CFB
:100FB00020624E45F4DB2078C0060AD52046FFF7B4
:100FC00069FF06E0D4E9012130209047206A401CE7
:100FD0002062381EA7F10107F4DC07E0D4E9012103
:100FE00018F805009047206A401C2062281EA5F1D1
:100FF0000105F3DC2046FFF763FF2078000602D5E9
:101000000220BDE8F0870120FBE700002DE9F04158
:101010000646002410687529314616A510D0FFF742
:1010200060FF002802DA404213A507E031688A0712
:1010300001D512A502E0490704D511A5012401E05C
:10104000FFF758FF00210A2206F1240709E0B0FB50
:10105000F2FCB0FBF2F302FB1C003030785418466F
:10106000491C0028F3D123462A463046BDE8F0410A
:10107000FFF772BF000000002D0000002B000000F1
:101080002000000011680268006A530501D508704D
:101090000AE0D30501D5088006E0130603D5C21780
:1010A000C1E9000200E008600120704701694A1CA4
:1010B00002610878704700B58FB0CDE90131002199
:1010C000059105497944CDE9031011466846FFF7BB
:1010D00063FA0FB000BD0000E5FFFFFF0A6802F8E9
:1010E000010B0A60704700002DE9FF5F15468A4634
:1010F0000446DFF8AC80F8440027D8E900103E46EB
:10110000CDE9001010E03AF816106A4602A802F085
:1011100009F9411C07D02178890603D5E2693918FD
:1011200091420DD80744761C2078800602D5E069EC
:10113000B84205DDAE42E6DB3AF816000028E2D1FF
:10114000A069C01BA0612046FFF7A4FED8E90010EB
:10115000CDE90010002017E03AF818106A4602A8FE
:1011600002F0E0F8B0F1FF3F81460BD000250DF111
:10117000080B05E0D4E901211BF8050090476D1C20
:101180004D45F7D308F10100B0428046E4DB206A08
:10119000384420622046FFF793FEBDE8FF9F000021
:1011A0005E7200002DE9F0418046D21D22F0070258
:1011B0000025D2E90002F52915A614D0011E72F10E
:1011C000000106DA0023D0EB030063EB020211A654
:1011D00008E0D8F800108B0701D50FA602E04907F8
:1011E00001D50EA601251146002408F1240704E0CC
:1011F00000F04EFF30323A55641C50EA0102F7D13C
:101200002B46324621464046BDE8F041FFF7A4BEDA
:10121000000000002D0000002B0000002000000056
:1012200030B4002100F1240408E002F00705D208E0
:10123000303542EA4372DB086554491C52EA030523
:10124000F3D10468002310A2250707D5A40600D413
:1012500021B1C46901230DA2641EC46130BCFFF733
:101260007BBE10B5044621461068FFF743FE0246D8
:101270002046BDE810400023D2E7D21D22F007012E
:10128000D1E90023CCE7000000000000300000009E
:101290003A2800D2303820F02002412A01D3A2F1AE
:1012A0003700884201D34FF0FF3070472DE9FF4FE0
:1012B0001C4691464FF0FF3581B000218A46884692
:1012C000D4E90167A16902986D1C8847216A8346A9
:1012D00088470028F6D1BBF1FF3F0CD0002F26F441
:1012E000C0661ADD700615D5BBF12B0F0AD0BBF115
:1012F0002D0F0FD104E04FF0FF3005B0BDE8F08FA7
:1013000046F48066A16902986D1C88477F1E83465B
:10131000002F02DDBBF1300F03D0B9F1000F2AD04E
:1013200025E0A1696D1C02987F1E46F4007688476F
:10133000002F834605DDBBF1780F06D0BBF1580FB7
:1013400003D0B9F1000F10D011E0B9F1000F02D0B5
:10135000B9F1100F0BD1A1696D1C02987F1E26F404
:10136000007688478346102000E0082081464FEA37
:10137000E970009017E00A20F8E74346AAFB092825
:10138000DDF800C07F1E03FB098046F4007605F1FE
:1013900001050AFB0C0112EB0B0A029841EBEB78FA
:1013A000A16988478346002F06DD49465846FFF766
:1013B0006FFF5FEA000BE0D5E16902988847B0054E
:1013C00002D46FF0010098E7F00718D1700610D52D
:1013D0005146700505D50023D1EB030163EB0802EC
:1013E00000E042462068031D23600068C0E9001247
:1013F00005E02068011D21600068C0E900A82846BA
:101400007BE72DE9FF5F4FF00008994614464646FA
:101410009169D2E901A7DDF838B0019888470546FF
:1014200059EA0B0005D009E0A1690198761C8847AC
:101430000546216A284688470028F5D1681C03D054
:101440005FEACA7005D015E04FF0FF3004B0BDE888
:10145000F09F2068011D2160D0F800800AE05FEA5B
:10146000CA7001D108F8015BA169761C01987F1E42
:1014700088470546002F1ADD681C18D0B9F1000F07
:101480000DD0E81705EBD060421120F01F0059F88D
:1014900022102A1A012090400142E0D107E0BBF15E
:1014A000000FDCD12846216A88470028D7D0E1699F
:1014B00001988847BBF1000F07D1002E05DD5FEAD8
:1014C000CA7002D1002188F80010A068B84203DD7C
:1014D000BBF1000F03D017B16FF00100B6E7304643
:1014E000B4E70000026811441378016018467047A1
:1014F000D160054979445161044979441162002160
:101500001161114601F0ECB9EDFFFFFF1D0C000069
:10151000426842B1016811F8013B23B1521EC0E993
:101520000012184670470121C160881E704742684A
:101530005AB1C368016843B983688B4205D0491E1C
:10154000521CC0E90012002070474FF0FF30704776
:101550002DE9FF4F4FF000089A461446C146464613
:1015600083B0D2E901B7CDF80080CDF8048091694D
:1015700004988847109905465AEA010005D009E009
:10158000A1690498761C88470546216A2846884741
:101590000028F5D1681C03D05FEACB7005D02AE0A3
:1015A0004FF0FF3007B0BDE8F08F2068011D2160CB
:1015B000D0F800801FE002A86A46E9B201F094FE6C
:1015C000411C07D0801C09D04FF000095FEACB70A6
:1015D00007D00AE0E169049888473EE04FF001092E
:1015E00004E0BDF8081028F8021B7F1EA1690498CA
:1015F000761C88470546002F1ADD681C18D0BAF102
:10160000000F0DD0E81705EBD060421120F01F004D
:101610005AF822102A1A012090400142CBD107E04B
:1016200010980028C7D12846216A88470028C2D0D0
:10163000E16904988847B9F1000F0ED1109830B9CC
:10164000002E04DD5FEACB7001D1A8F80000A0688D
:10165000B84202DD109818B117B16FF00100A1E790
:1016600030469FE72DE9FF4F4FF000089B46144698
:10167000454683B0D2E90196CDF80080CDF80480CC
:101680009169DDF848A00498884707465BEA0A009C
:1016900005D009E0A16904986D1C88470746216AB6
:1016A000384688470028F5D1781C03D05FEAC97016
:1016B00005D01BE04FF0FF3007B0BDE8F08F206889
:1016C000011D2160D0F8008010E05FEAC97007D1E9
:1016D0006A464046B9B201F025FE411C31D0804433
:1016E000A1696D1C0498761E88470746002E14DDFC
:1016F000781C12D0BBF1000007D03B46DDE9101288
:1017000001F044FD0028E0D107E0BAF1000FDCD180
:101710003846216A88470028D7D0E169049888476D
:10172000BAF1000F06D1002D04DD5FEAC97001D1C6
:1017300088F80000A068B04203DDBAF1000F03D0C2
:1017400016B16FF00100B7E72846B5E72DE9FF5F56
:101750009B46144600273D469169D2E90196DDF883
:1017600040A00198884780465BEA0A0005D009E05E
:10177000A16901986D1C88478046216A40468847C8
:101780000028F5D1B8F1FF3F03D05FEAC97005D05A
:1017900014E04FF0FF3004B0BDE8F09F2068011D59
:1017A000216007680AE05FEAC97001D127F8028B5F
:1017B000A1696D1C0198761E88478046002E15DDB4
:1017C000B8F1FF3F12D0BBF1000007D04346DDE97E
:1017D0000E1201F0DBFC0028E5D107E0BAF1000FA2
:1017E000E1D14046216A88470028DCD0E1690198B0
:1017F0008847BAF1000F05D1002D03DD5FEAC970FB
:1018000000D13880A068B04203DDBAF1000F03D0E8
:1018100016B16FF00100BEE72846BCE770B50D4673
:1018200001461446D36850692A4603F073FC002829
:1018300007DA411C07D0E16820F0004041F4804104
:10184000E160281A70BD204600F06CFA4FF0FF30BE
:1018500070BDC1680022026021F4805141F0400156
:1018600011F4C06FC16001D08260704702694168A5
:10187000891AC269891A816070472DE9F0470446C8
:10188000C06840F48000E060010312D520F400201D
:10189000E060810606D4E26A61688A4200D80A469E
:1018A000511A216040F40010E06094F82500BDE872
:1018B000F08720F40010E060800602D5204600F09A
:1018C00088FAE06842F281014FF0FF3901400129B6
:1018D00003D0204600F026FAB6E021680026002951
:1018E0000ADAC94340F480502160C4E902606068AC
:1018F000411C61600078DAE744F2400108420CD0F4
:1019000020F4A04040F040002660E060216960685B
:10191000401AE169401AA06096E0216991B9C003BC
:1019200010D4E069FEF7DDFC2061B0B1E06840F45E
:10193000006010F4407FE06002D140F48070E0600D
:1019400020696060E068D4F814A0C1061AD5C0030D
:101950000ED5204600F01AFA14E004F124002061AC
:101960000120E061E06820F4407040F48060E6E728
:1019700021696068401AA1690144504603F0FAFBEE
:101980000028A6DBE068C0032AD56168E06A8842C7
:1019900000D808462169451AE069471B1BD020463C
:1019A000D4F8188000F0F2F908EB05015046C4F8AD
:1019B000188003F0DFFB00288BDBE06840F4003088
:1019C000E060000202D5A0692844A061E1692069B5
:1019D000C91B45180DE0204600F0D8F9E769F5E786
:1019E00025696168D4E90607491BE562084465601A
:1019F000A061E06820F0100010F4C06FE06002D039
:101A0000204601F043FCE06840F48050C4E90260E5
:101A1000000205D52069E06260606FF0010046E7D2
:101A2000224639462846FFF7F9FE411C0CD02918FA
:101A3000E16258B1401E2060681C6060E06840F4BC
:101A40000030E060287832E7484630E7656020469D
:101A5000FFF7FFFEF8E72DE9F04705460C46C8689A
:101A600020F4201040F48000C860800602D50846AB
:101A700000F0AFF9E06841F282014FF0FF39014018
:101A8000022903D0204600F04DF9B5E000F42041D2
:101A9000B1F5004F0FD1C00306D56168E06A8842F6
:101AA00000D80846606006E02069E0626060606916
:101AB00003F016FAA061A0680022EEB200280DDA49
:101AC000E1688B050AD4C043A06041F490302260E5
:101AD000E0606068411C61600670A5E0E0689046C7
:101AE000226040F40050E060206968BB606903F048
:101AF0000BFA012704F12405A0B1A08910F4407F5E
:101B000008D0E069FEF7EDFB206118B1E06840F411
:101B1000006016E0E7612561E06820F4407040F461
:101B200080600EE0E069FEF7DCFB00282061F1D068
:101B3000E06840F4006010F4407FE06002D140F4BF
:101B40008070E06020696060E06825696FF0010ADC
:101B5000C1051FD56168E06A884200D80846411B6C
:101B600004D02246284600F0E7F8F0BBE068010206
:101B700003D5E562C4E9015854E0691CE162616083
:101B8000E16940F48030491EC4E9021030462E70ED
:101B9000BDE8F087010202D500F480320AE06068F7
:101BA000411C61600670E0680A2E40F48030E060FD
:101BB00006D00022E16A6068814203D90B4602E048
:101BC0000122F7E70346A7895B1B7F0503D4E7697A
:101BD0009F4200DDE2B1814200D80146E5620F1A62
:101BE000C4E90158002B09DD00E005E02246194652
:101BF000284600F0A1F808B14846C9E747B1A069F6
:101C0000E5626560C01BA061E06840F01000E06024
:101C1000E068000208D56168A069E562491B0844D4
:101C20006560A0615046B3E73046B1E72DE9F04169
:101C3000044616460D464769007B80072ED038467D
:101C400003F062F950BB3EB3012E02D0022E25D123
:101C500004E0204601F0CDFA05441DE0384603F0CB
:101C60003FF9E168002841F01001E16005DA204603
:101C700000F058F80120BDE8F081C9030BD5626877
:101C8000E16A914200D81146A26911442269891A79
:101C9000814200DD08460544002D01DA0220EAE712
:101CA000E16A6068E268814206D29103E06203D58E
:101CB00022F4003141F01002A6690027AE4213DC85
:101CC000E16A814201D90B4600E0034603EB060CB2
:101CD0002369ACEB030CAC4506DD814201D98C468F
:101CE00000E084469C4505D1A760276042F02000B3
:101CF000A5620DE0AD1BE669AE1B8142A66000D96E
:101D00000846C01A281A20605819606022F0200086
:101D100003490840E060002084F84870ABE7000009
:101D2000BFCFD7FFC16821F4001141F08001C1602D
:101D300000218160016070472DE9F047814614461B
:101D40000E464FF0FF383248D5685769054209D032
:101D50003846A16903F00EFA002811DB2C48C04375
:101D60000540E5602B4632464946384603F016FAF0
:101D7000A16920F00042B21A11440028A16103D0E9
:101D80002046FFF7CFFF4046BDE8F08770B5044618
:101D90000569C06A6168884200D80846E16821F494
:101DA0002011E160C90312D5A84208D02246411B88
:101DB0002846FFF7C1FF10B14FF0FF3070BD002083
:101DC000E562C4E90150E06820F48030E060002062
:101DD00070BD10B50446C06820F02000E060A16A24
:101DE000A06988420DD02046FFF7D0FFE06820F4BC
:101DF000405040F01000E060A06AA0612069E062FD
:101E0000606044F24001E0688843E06010BD00007B
:101E1000100002002DE9F04704461E4690460D468C
:101E2000C7684C30814602F0FDFFB80714D0780235
:101E300012D44046B8F5807F09D0B0F5007F06D0B7
:101E4000B8F5806F08D1012604F1240506E0701E64
:101E50006FF07F41884201D3012409E02561E661EA
:101E60006560E06820F4706040EA0800E0600024EB
:101E7000484603F00DF82046BDE8F08710B56548E8
:101E80005421FEF727FF64485421FEF723FF6348DF
:101E90005421FEF71FFF62485E49624A624B0160AF
:101EA0005D4810605D4A1A60431C0B65511C01655A
:101EB0000120106557484C3002F0C4FF56484C30A2
:101EC00002F0C0FF55484C3002F0BCFF574802F00A
:101ED000B9FF58484F4A56A17844FEF7E6FD20B9AD
:101EE000544878440A3801F042FA54484A4A52A108
:101EF0007844FEF7DAFD20B9504878440A3801F0FA
:101F000036FA4F48454A4CA17844FEF7CEFD20B939
:101F10004B4878440A3801F02AFA40233D48DC0057
:101F200000212246FFF776FF20B14248784454381A
:101F300001F01DFA3848224640230021FFF76AFFCE
:101F400020B13E487844543801F011FA3348224613
:101F500010230021FFF75EFF002806D038487844A0
:101F6000BDE81040563801F002BA10BD2B482DE9EB
:101F7000F041006D2D4E20F00104304602F052FF7A
:101F8000244D4C35284602F04DFF2248FEF79EFCBA
:101F9000284602F07DFF2846AFF300801E4D4C35E9
:101FA000284602F03FFF1C48FEF790FC284602F04E
:101FB0006FFF2846AFF30080184D4C35284602F0DD
:101FC00031FF1648FEF782FC284602F061FF2846E2
:101FD000AFF3008014E0206D20F0010504F14C0007
:101FE000074602F01FFF2046FEF770FC384602F05D
:101FF0004FFF3846AFF300802046FEF74AFA2C46E2
:10200000002CE8D1304602F043FF0848AFF30080CF
:10201000BDE8F0819C140010F0140010441500106D
:1020200074010010780100107C0100108001001084
:10203000720000008A6200007700000079620000F0
:102040006962000010B501F0A1F9BDE8104001F08F
:1020500089B930B404468C464368002B18BF6345E9
:1020600038BF1846F8D303681844604507D0C81C29
:1020700020F0070000F1040CACEB0100121A21461D
:10208000CCF8002030BC00220CF10400FEF7D0B9DF
:1020900030B5B0F10A024FEA900E71F100034EEA3A
:1020A000817EB0EB0E0061EB91014FEA101E4EEA0B
:1020B000017E10EB0E0041EB11114FEA102E4EEA9B
:1020C000016E10EB0E0041EB11214FEA104E4EEA6B
:1020D000014E10EB0E0041EB1141401841F100019F
:1020E0004FEAD00040EA41704FEAD10110EB800581
:1020F0004FEA810444EA907444EB01046D1944EB07
:102100000404521BA3414FF0000348BF0A3200D51C
:1021100030BD401C41F1000130BD10B5044601F056
:1021200053F90068005D00F0010010BD70472DE913
:10213000FF4F0C461E464FF0FF378BB0D2E900012F
:10214000DDF860800A908A46C1F30A5505B93D461C
:10215000002108464FF00000BAF1000F00F44000E3
:1021600005DA00EB80004FF4400101EA50004FEA2D
:102170009059B9F1010F00DDB9460A9850EA4A00BA
:102180000ED044F61050A5F2FF3545432F14B8F198
:10219000000F1ED07542291E1EDDC9F100021CE091
:1021A000B8F1010F4FF0000001D0302103E0F243FD
:1021B00005E02154401CB042FBDB304600220021E8
:1021C00021540B99C1F80880C1E900200FB0BDE887
:1021D000F08FBD1B6D1CDEE74A4600DA694206A897
:1021E00001F042F906AB93E8070003AB83E8070070
:1021F00050460A9901F07BFC8DE80700A0F50050DD
:102200001F3800900398002D0ADD42F21F014A4654
:102210000844002303A90390684601F027FF09E062
:10222000A0F500504A461F38002303A903906846D2
:1022300001F046FF8DE807000004000C03D04FF0CA
:10224000FF30410800E01046B8F1000F03D0002233
:10225000009215461EE0751E05D4FFF719FF3032B7
:1022600062556D1EF9D5B3460122084302D0002203
:102270007F1C04E02078302801D100227F1E002A34
:10228000099784D01DE0112D07DAFFF701FF3032E6
:1022900062556D1C50EA0102F5D1084302D0009846
:1022A000C8B10EE00021681E05E0235C625C635447
:1022B0002254401E491C8142F7DBAB46A81B401E3E
:1022C0000990002004F80B000B98099AC0F80880C8
:1022D000C0E9002B7AE711264FF0000857E72DE9F7
:1022E000F04F88460446D21D22F0070191B0D1E993
:1022F0000001CDE90A0102F03AFC02460B98C00F3A
:1023000001D02D2007E02068810701D52B2002E0B5
:10231000202101EAC000032A099001D0072A05DB29
:1023200003464146204601F05FF80BE12078800625
:1023300001D5E06900E00620B8F1650F814606D0BE
:10234000B8F1660F18D0B8F1670F70D131E00020F6
:10235000B9F1110F009001DB112301E009F1010334
:102360000AAA01A90CA8FFF7E2FEDDE90C7000261D
:1023700009F10105834647E001204B4600904FF0EC
:1023800000470AAA01A90CA8FFF7D1FEDDE90DB0AC
:102390000C995D46002610B909F101000D18B9EB42
:1023A000050003D4C0F1FF3609F10105A5EB0900D2
:1023B0002BE0B9F1010F01DA4FF001090020B9F16A
:1023C000110F0090484601DD112300E003460AAAE0
:1023D00001A90CA8FFF7ABFEDDE90C704D46002605
:1023E0008346207800070AD4AB4500DA5D4601A891
:1023F000012D04DD411911F8011C302907D04F458A
:1024000002DA17F1040F04DA012082460FE06D1E94
:10241000EEE7002F02DCED1B3E4403E0781CA842EF
:1024200000DD7D1CB81B00F1010A4FF00047207849
:10243000000703D4AA4501DB4FF0FF3A0021B7F1B2
:10244000004F0DF143088DF8431024D002202B23B8
:10245000002F01DA7F422D230A21021EA0F1010084
:1024600000DC5FB197FBF1FC97FBF1F201FB1C7CF8
:1024700017460CF1300C08F801CDEEE7A8F1010089
:1024800003702188090501D5452100E06521A0F1EF
:10249000010800F8011C09980FA9A1EB0807FF1D0E
:1024A00000B10120411901EBEA70A1693844081A12
:1024B000401EA0612078C00602D42046FEF7EAFC48
:1024C000099828B1D4E901219047206A401C206274
:1024D0002078C00622D52046FEF7DCFC1EE0002E48
:1024E00004DBB34502DD01A8805D00E03020D4E9C3
:1024F00001219047206A401C2062761CAAF101004D
:102500005FEA000A0AD100F067FFC0680168405C1A
:10251000D4E901219047206A401C2062281EA5F1C1
:102520000105DCDC07E0D4E9012118F8010B904734
:10253000206A401C2062381EA7F10107F3DC204608
:10254000FEF7BEFC032011B041E600002DE9F04F7C
:1025500004460D46D21D22F0070089B0D0E900974D
:102560004846394602F003FB0246F80F01D02D23FE
:1025700007E02068810701D52B2302E0202101EA32
:10258000C0038DF820300BB1012000E00020032AA9
:10259000824601D0072A04DB2946204600F024FFAA
:1025A0003FE12078800601D40D2500E0E569C7F3FE
:1025B0000A560D2D49DA00214FEA175B08464FF005
:1025C0000000002F00F4400007DA00EB80004FF419
:1025D000400100EBD07001EA60008115012901DDA6
:1025E0004FF0FF3100224FEA850CBCF1180F06D3E3
:1025F0001346ACF118004FF08052C24003E04FF494
:10260000801323FA0CF30CF10C0CBCF1200F04D353
:10261000ACF1200C09FA0CF001E007FA0CF00029EB
:102620004FF0004801DD18B90FE00ED140450CD342
:1026300019EB02095F4121B9404502D19F4329EAC4
:102640000209BBEB175F00D0761C2088000502D57D
:102650007B48784402E07A487844193808AA302345
:1026600002F80A30037C0AF10101002E0AF1020A85
:1026700053546A4602DC4FF0300101E04FF0310163
:102680004FF001088DF8001002D0A6F2FF3603E0EB
:1026900059EA470100D06B4E002D02DC2178090772
:1026A00004D54FF002082E218DF80110C4460021F8
:1026B0000BE0C7F303433F01C35C491C6D1E02F8E6
:1026C0000830052908F1010801DA002DF1DC0021AC
:1026D0000CE000EB1973491C1B786D1E082902F8E9
:1026E00008304FEA091908F1010801DA002DF0DC81
:1026F00021688B0602D516E0A8F10108E04505DD4A
:1027000002EB080313F8013C302BF5D0B8F1000FB1
:1027100009DD02EB080313F8013C2E2B03D1090756
:1027200001D4A8F10108002D05DD3E2102F80810B2
:102730006D1E08F10108407C002E02F8080008F127
:10274000010804DA2D20764202F8080002E02B206E
:1027500002F808000A214FF47A70864208F1010855
:102760000BDB96FBF0F3303302F8083096FBF0F306
:1027700008F1010800FB136601E0642E0CDB642005
:1027800096FBF0F3303302F8083096FBF0F308F1D3
:10279000010800FB136601E00A2E06DB96FBF1F050
:1027A000303002F8080008F1010896FBF1F001FB57
:1027B0001060303002F80800A16908F1010808EB48
:1027C000050202EB0A00081AA0612078C00602D4B4
:1027D0002046FEF75FFB216A08AE01EB0A0020628B
:1027E00004E0D4E9012116F8010B9047BAF1010A7F
:1027F000F7D22078C00602D52046FEF74BFB6E4686
:1028000009E016F8010B3E280FD0D4E901219047CA
:10281000206A401C2062B8F10108F2D22046FEF77F
:102820004FFB09B00320BDE8F08F206A28442062E6
:1028300003E0D4E90121302090476D1EEBD3F8E787
:102840001D5D000002FCFFFF10B5436913B1AFF33B
:10285000008001E0FEF757FB012010BD127800F167
:1028600024010A7000224A700122EDE711684FF03E
:10287000FF32E9E72DE9F04114460D46074601F124
:102880004C06304602F0CEFA094B7B4422462946DC
:102890003846FEF710FC0446287B000601D54FF0B1
:1028A000FF34304602F0F4FA2046BDE8F081000023
:1028B000B72A000010B5436913B1AFF3008001E0FF
:1028C000FEF712FC012010BD128800F12401828461
:1028D0000022C2840122EDE711684FF0FF32E9E7E0
:1028E0002DE9F34F4FF0000A0C4656468DB00120FB
:1028F0000C9001F10C000B9062690B98012190473C
:10290000051E2DD0252D2CD0216A8847C0B16269C3
:102910000B9801219047216A88470028F7D1626906
:10292000411E0B98904700E0761CA1690D988847DE
:10293000216A88470028F7D1E1690D988847DBE7CD
:10294000A1690D988847A842074601D1761CD3E7B4
:10295000E1690D9888477F1C02D1BAF1000F6FD052
:102960006BE162690B9800273D46394690472A285B
:1029700004D162690B98012190470125DFF8D082CC
:1029800062690B9801219047A0F130010A290AD20F
:102990004745E5DC07EB870100EB4107303FDFD41B
:1029A00045F01005ECE7E90601D46FF000476C280C
:1029B0000AD04C2814D0682815D06A280DD0742865
:1029C0001CD07A281AD01DE062690B98012190472B
:1029D0006C2802D045F0040514E045F002050DE036
:1029E00045F020050AE062690B98012190476828AC
:1029F00002D045F0080505E045F4006562690B98D2
:102A000001219047C4E9015765283DD019DC5828B9
:102A10007AD00CDC452837D004DC252826D0412884
:102A20009ED131E046282FD0472899D12CE05B2851
:102A300077D0612828D063287CD0642823D15AE03D
:102A4000F6E06F2848D008DC66281DD067281BD028
:102A5000692821D06E2816D127E0702845D0732828
:102A600068D0752847D078280DD14DE0A1690D9820
:102A70008847252805463FF469AFE1690D988847E6
:102A80006D1C3FF46AAFD8E00D9923466A466FF09B
:102A9000010005F04AFBC5E045F0400023464FF039
:102AA00000026060A80736D43EE0E8077FF447AF35
:102AB0002068011D21600068290501D506701BE70B
:102AC000290701D5068017E7A90703D5F117C0E943
:102AD000006111E706600FE745F0400023464FF024
:102AE00008026060A80716D41EE040F60E0125EA31
:102AF0000100606016E045F0400023464FF00A02F6
:102B00006060A80707D40FE045F040006060A807A8
:102B100008D5234610220D996FF00100FEF7C6FB81
:102B200080E007E0102223460D996FF00100FDF7C9
:102B30001DFE77E04FF0000963284F46C8464B461C
:102B4000CB4602D05B2806D038E0E80601D401204D
:102B5000A060012732E06269D4F80CB00B98012123
:102B600090475E2807D14FF0010949466269D4F8C1
:102B70000CB00B989047216939B900210A4603AB84
:102B800043F82120491C0829FADBD8B3216949B34D
:102B900008F1010862690B98012190475D28F4D182
:102BA000B9F1000F09D0002003A951F82020D24329
:102BB00041F82020401C0828F7DB03AB20690028DF
:102BC00020794FEA40701ED05B462246CDF8008047
:102BD000CDE901970D9900286FF0010020DAFEF78A
:102BE000B5FD1FE0C11703AA00EBD1614B1121F025
:102BF0001F0102EB8302411A13680120884003433E
:102C00001360C7E719E00D99224600286FF0010014
:102C1000009702DAFEF79CFC04E0FEF7F2FB01E00D
:102C2000FEF720FD00280ADA401C06D10C9820B1DE
:102C30004FF0FF300FB0BDE8F08F5046FAE7E907DC
:102C400001D10AF1010A064400200C9054E600006C
:102C5000CCCCCC0C2DE9FF4F06468BB00878FF2872
:102C600006D0491C2D2805D000244FF0000908E0AB
:102C700000200CE00124F8E709EB8903491C00EB74
:102C800043090878FF28F7D114B1C9F10000814643
:102C9000107800252C46AA4629462D2801D02B283D
:102CA00004D1521C2D2813D0002082468B46107868
:102CB000FF280FD04FF0000C0A21521CA5FB017811
:102CC00004FB018105FB0C11C5194BEB0104EEE778
:102CD0000120EAE7002108464FF00000BAF1000F9A
:102CE00002D000EB80004008C0F38157012F01DDC6
:102CF0004FF0FF370E9955EA040009EB01080BD09D
:102D00004FF0020918F5FA7F16DA4FEACA70002F61
:102D1000706008DD012007E04FEACA70C6E900B024
:102D20000FB0BDE8F08F0020306000F05AFBC0F813
:102D300000901821084616E0B8F5FA7F18DD002F3C
:102D400002DAF748784401E0F6487844D0E9001008
:102D5000C6E9001040EACA70706000F042FBC0F89B
:102D60000090142108460FB0BDE8F04F05F076B989
:102D7000002108464FF00000B8F10001099002DA86
:102D8000C7F1000200E03A4601DAC8F1000106A8E6
:102D900000F06AFB06AB93E8070003AB83E807008B
:102DA00044F23E005BEA04010090584604D144F22C
:102DB0001E012C465D460091210C0904014306D1F9
:102DC0000099240444EA15442D041039009104F0BC
:102DD0007F41014306D10099240244EA15642D0283
:102DE0000839009104F07041014306D10099240193
:102DF00044EA15742D01091F009104F0404101437C
:102E000006D10099A40044EA9574AD00891E009192
:102E100004F00041084304D100986D196441401E3C
:102E200000904FF001033A466846B8F1000FCDE933
:102E3000014503A902DD01F058F901E001F02BF989
:102E4000BAF1000F04460D4601D084F00044002181
:102E500008464FF00000099940F2FF77484010F013
:102E60000C0F07D124F00040284303D0C4F30A50CC
:102E7000B84212D100F0B5FAC0F80090C4F30A507D
:102E8000B8420AD1A8487844D0E90010C6E9001039
:102E900004F000410843706042E7C6E900543FE790
:102EA0002DE9FF4F1F464FF0000A4FF0FF3845460F
:102EB00091B0D7E90146CDF83CA000F08DFAC0688A
:102EC0000168405C1090B96912986D1C8847396A96
:102ED000814688470028F6D1B9F1FF3F0AD0002E7D
:102EE00024F4D06411DDB9F12B0F08D0B9F12D0F06
:102EF0000BD102E0404615B013E744F48064B96991
:102F000012986D1C8847761E8146600504A901D57C
:102F10002D2000E02B20002E01F1010B0DF13008D7
:102F20008DF810003FDDB9F1690F08D0B9F1490FF4
:102F300005D0B9F16E0F02D0B9F14E0F1CD13B464E
:102F400001A8009580E85002DDE912126FF002003E
:102F500005F0EFF8C11CCED10EE0B96912986D1CD6
:102F6000884781461398761E44F4007405600F98D4
:102F7000401C002E0F9016DDB9F1300FEDD0B9F1E5
:102F8000780F02D0B9F1580F0DD10F9801280AD14E
:102F90003B46CDE90054DDE91212001F029605F010
:102FA000C6F8C11CA7D1109989453ED144F08004D0
:102FB00006E01399681CAAF1010A44F40074086041
:102FC000B9696D1C1298761E884730288146F0D06A
:102FD0002BE01099894505D1200603D4761E44F0D4
:102FE000800418E0484601F015FF08B3761E0DF185
:102FF00023018B4544F4007408D2A9F130000BF88A
:10300000010B200607D5AAF1010003E0200602D437
:103010000AF101008246A00502D51399681C0860D8
:10302000B96912986D1C88478146002ED1DC53E0A7
:10303000002E51DDB9F1650F02D0B9F1450F4BD12A
:10304000A00549D5B9696D1C1298761E24F4407408
:103050008847002E81460CDD2B2804D0B9F12D0FB6
:1030600007D144F48074B96912986D1C8847761EA4
:103070008146E00501D52D2100E02B2108F8011B38
:10308000CDF8008021E0761E0DF13901884544F429
:1030900000740CD2A9F1300010F0FF0088F8000095
:1030A00002D10099884509D908F1010806E0E00538
:1030B00001D51E4801E042F20F708246B9691298AC
:1030C0006D1C8847814613980560002E04DD484634
:1030D00001F0A0FE0028D6D1F96912988847FF2098
:1030E00053468BF8000088F8000000200A900B90EF
:1030F00004AA0CA90AA8FFF7ADFDA00502D46FF041
:103100000100F8E614F0240F12D0E0071CD1386853
:10311000DDE90A12031D3B600068C0E9001213E0FC
:10312000D05A0000C25A000086590000F1D8FFFFB3
:103130000AA9684601F07AFDE00705D13868009ACF
:10314000011D3960006802602846D4E62DE9F0418F
:1031500014460F46064600F14C05284601F062FE73
:1031600008487844A0610848784422463946E0611E
:103170003046FEF7BDF90446284601F089FE204698
:10318000BDE8F081C72100004100000010B508E053
:1031900030F8024B9C4204D10AB1002010BD01203E
:1031A00010BD491EF4D2104610BD704710B54FF047
:1031B000FF34C1688A020FD5036B42689A420BD173
:1031C000014690F82520104600F0C0F9401C01D1BE
:1031D000204610BD002010BD11F0C00FF8D10269CB
:1031E00041689142F4D90268491E521CC0E900218D
:1031F000F0E710B50146C268900703D0900607D5E6
:10320000886A0AE000F0EDF801210160881E10BD17
:103210008B69486818440B69C01A91F848301BB193
:1032200091F84910401A10BD1103FCD50028FADDB1
:10323000401E10BD2DE9F041044617460D4602F12F
:103240004C00804601F0EEFD012D264616DD384685
:1032500002F06CF8411C0FD0C0B20A2804F8010B30
:1032600002D06D1E012DF2DC00202070404601F0DE
:103270000FFE3046BDE8F081B44201D10026F5E7EB
:10328000387B0006F0D50026EEE700002DE9F04778
:1032900007461348814601F0C5FD124C40F2022852
:1032A00017E094F85000C00710D0BC420ED004F1D3
:1032B0004C05284601F0B6FDE668284601F0E8FD19
:1032C00038EA060002D12046FDF750FB206D20F0C1
:1032D0000104002CE5D1484601F0DAFDBDE8F08795
:1032E000800100109C14001070B516460C4605466F
:1032F00000F06AF8036893F80101012804D0185D12
:1033000068B101202C8070BDD3F8030132462146FC
:1033100003F2031303442846BDE8704018474FF0FA
:10332000FF3070BD70B516460C46054600F04CF8EF
:10333000036893F80101012806D0FF2C0FD8185D0F
:1033400068B101202C7070BDD3F8070132462146C8
:1033500003F2071303442846BDE8704018474FF0B6
:10336000FF3070BD002801D000F028B8704710B5BC
:1033700000F02AF9BDE81040FFF7F4BF10B500F0E7
:103380003DF9BDE81040FFF7EDBF000010B500218A
:1033900002A000F0FFF8012010BD00005349475083
:1033A00056464E3A20507572652076697274756182
:1033B0006C20666E2063616C6C65640001491820A6
:1033C000ABBEFEE72600020010B500F005F8001DB8
:1033D00010BD00BFB947000010B5FCF739FF203021
:1033E00010BD01F0CDBC00002DE9F0411F460446A0
:1033F00003260168072A01F4006004DB08B116A562
:1034000005E016A503E008B115A500E015A521F01B
:1034100010002060A069C01EA0610FB1401EA06115
:103420002046FDF737FD4FB1D4E9012138469047DA
:10343000206A401C2062C01C206206E0206AFAE775
:10344000D4E9012115F8010B9047761EF8D22046E9
:10345000FDF736FDBDE8F0814E414E006E616E0015
:10346000494E4600696E66002DE9F04781461646D2
:103470008AB0354878440DC88DE80D00324878444C
:10348000801C03AC0DC884E80D0041F69B30084455
:10349000372190FBF1F290FBF1F5A5F1800501FBDE
:1034A00012041B3C02D56442012000E00020DFF83A
:1034B00098A080460027FA44AAF1BE0A0EE0E00771
:1034C0000AD03246684607EB470101230AEB810127
:1034D00000F0F6FD8DE8070064107F1C002CEED193
:1034E000194F7F44AE3F19E0E80715D007EB0410F1
:1034F0000DF1180A90E80E008AE80E00C068F0424C
:1035000001D1981908903246012306A903A800F0BA
:10351000D7FD03AB83E807006D10641C002DE3D1D9
:103520004FF0010332466946B8F1000F03A802D0FC
:1035300000F09CFD01E000F0C3FDC9E90001C9F8FD
:1035400008200AB0BDE8F0878C4F0000CA68431C11
:103550000FD00D4B1A420CD1D3070AD081F82500A9
:103560004B680B6300238B6012F0C06F0B6003D0BD
:1035700004E04FF0FF30704742F00072034B1A40F6
:10358000034B1A43CA60704780200800BFFFDFFF6B
:103590000010480070B505460C460A2000E06D1C7E
:1035A00000F054F835B128780028F8D102E0641C06
:1035B00000F04CF814B120780028F8D1BDE8704034
:1035C0000A2000F043B8000010B5014602A0FFF742
:1035D000E1FF012010BD00005349475254524544B9
:1035E0003A2052656469726563743A2063616E279C
:1035F00074206F70656E3A200000000010B501283D
:1036000005D0002103A0FFF7C5FF012010BD09A1CF
:10361000F8E7000053494752544D454D3A204F7545
:1036200074206F662068656170206D656D6F7279BA
:10363000000000003A2048656170206D656D6F7272
:103640007920636F727275707465640008B569469D
:103650008DF800000320ABBE08BD704710B5FFF722
:10366000C0FE006810BD10B50446FFF7BAFE046046
:1036700010BD00002DE9FF4F1F464FF03C0987B0F9
:103680004FF00042DDE9141001F10108DDF858A007
:1036900002EA405003900020059083460546044608
:1036A0000490B969461E08988847AAF1010A029059
:1036B000BAF1000F3BDD02982E2815D01021FDF73E
:1036C000E7FD00282EDB4FF0010B0599014317D0D1
:1036D000B9F1000F0BDB4A46C11700F0F5F90543BD
:1036E0000C43A9F1040905E0012004900BE008B1A6
:1036F00045F0010501200590049820B9361D02E02F
:10370000049800B1361FB969089808F10108884784
:10371000BBF1000FAAF1010A0290C9D00999C1F8C2
:103720000080C5E70298702808D0502806D0F969B3
:1037300008988847BBF1000F14D04FE0002002909A
:103740000120BBF1000F049009D0B969089808F175
:1037500001088847AAF10109B9F1000F07DCF969EE
:10376000089888476FF001000BB0BDE8F08F2B2858
:1037700004D02D280CD14FF0FF300490B96908987F
:1037800008F101088847A9F10109B9F1000FE6DD48
:10379000411CE4D00A21FDF77BFD0028DFDB029904
:1037A00008F1010801EB810100EB41000290B969C9
:1037B000089888470A21FDF76BFD099AA9F10109CC
:1037C000B9F1000FC2F8008001DD0028E7DAF969DD
:1037D000089888470499029800FB016655EA04009E
:1037E00004D004F04041090002D006E0039898E0BC
:1037F000A40044EA9574AD00B61E04F00041080030
:1038000002D16D196441761E159810F0240F03D073
:103810004FF00B095C4803E04FF028096FF07D0082
:103820008246564507DAAAEB06018944B9F1410FF1
:1038300001DD4FF0410901200021A9F1010200F052
:1038400043F9024628400B462140084301D001219C
:1038500000E00021501E029143F1FF312840214039
:10386000084301D0012000E000200299834651EA7C
:103870000B014FD0002108464FF00000039900F4DF
:10388000400039B100EB80004FF4400100EBD070F4
:1038900001EA60008015012802DD4FF0FF3000E0F2
:1038A00013D0401C36D0029860B3BBF1000F0CD18E
:1038B0004A460120002100F007F928402140084332
:1038C00001D0012000E00020E0B101204A460021A3
:1038D00000F0FAF8034640190A4661412D1A8C415E
:1038E00011D3B9F1400F09DD159810F0240F02D063
:1038F000AAF1340603E0AAF1170600E0761C0025C1
:103900004FF0004406E05B1E42F1FF3220EA03055F
:1039100021EA0204CAF10100B04206DA1B49039809
:1039200008430190002000900EE0039AC4F3D321D5
:10393000E80A0A43164940EA44500A433146CDE9B1
:103940000002684601F010FA159810F0240F0BD011
:103950001598C00715D13868DDE90012031D3B60DA
:103960000068C0E900120CE002A8694601F05EF9A7
:103970001598C00705D13868029A011D39600068A2
:1039800002604046F0E6000002FCFFFF0000F07F0E
:103990000000F03F2DE9FF4F92461D4685B04FF0E5
:1039A0000041DDE9124BDDE914727F1E01EA4B5044
:1039B000414940F0FF4940EA0108002122F020007F
:1039C0004928049102D04E2828D04CE03BA0012683
:1039D00007C88DE80700A9690698641C88477F1E00
:1039E000014606D41DF8060018B121F020018142DD
:1039F0000BD0E96906988847032E34D0082E32D0C0
:103A00006FF0010009B0BDE8F08F761C032E01D0E5
:103A1000082EE0D1601CCAF80000DCE7A96906980E
:103A2000641C88477F1E2AD420F02000412826D11C
:103A3000A9690698641C88477F1E20D420F02000C6
:103A40004E281CD1A9690698641C88477F1E48F43B
:103A5000002849F48009CAF8004001D4282806D07B
:103A6000E969069888475FEACB7012D022E0A9691D
:103A70000698641C88477F1E01D4002803DAE96990
:103A800006988847BCE72928F1D1641CCAF8004091
:103A9000E9E71BF0240F07D028680499031D2B6069
:103AA0000068C0E9001805E02868021D2A60006867
:103AB000C0F800902046A5E70000F07F494E464937
:103AC0004E49545900000000B2F120030AD5C2F15A
:103AD000200301FA02F120FA03F300FA02F041EAAE
:103AE0000301704700FA03F14FF0000070475FEAEE
:103AF000400C08BF91F0000F4FEA8C234FEAC1221F
:103B000043EA51514FEA1C5018BF00F5F0404FEA0C
:103B1000300018BF41F000415FEA6C5C00F0298082
:103B2000BCF1FF3F08BF40F080407047130C06BF58
:103B300012044FF0100C4FF0000C130E04BF1202D1
:103B40000CF1080C130F04BF12010CF1040C930FBD
:103B500004BF92000CF1020CD30F04BF52000CF111
:103B6000010C11464FF00002A0F11F00A0EB0C0069
:103B7000704711F0004F08BF704731F000413FF42B
:103B8000D5AF0B0C06BF09044FF0100C4FF0000C22
:103B90000B0E04BF09020CF1080C0B0F04BF090146
:103BA0000CF1040C8B0F04BF89000CF1020CCB0F3D
:103BB00004BF49000CF1010CCCF12003A0EB0C0078
:103BC00022FA03F302FA0CF241EA030100F10100C8
:103BD000704720F07F4C80EA030023F07F47ACEB76
:103BE000070303F57C5300F0004003F1FF032DE9C8
:103BF00080494FEA154B09B44FEA144325EA0B4EAE
:103C000024EA03480FF2042606EB132749083E78FE
:103C10005FEA320203FB0667C7F5000707FB06F6FB
:103C20004FEA54374FEAD64606F1020607FB066C08
:103C3000CCF1005C4FEA1C472CEA074C07FB06F46A
:103C40000CFB06F504EB15464FEA961634BF002030
:103C50004FF000404FEAD13706FB07FC4FEA1C4CFF
:103C60000CFB0BF7D21B03FB0CF761EB07010CFB02
:103C70000EF7B0EB074072EB17420CFB08F734BFAE
:103C8000A2EB0742B2EB074261EB17414FEA0C444B
:103C90004FEA910706FB07FC4FEA1C4C0CFB0BF7A5
:103CA000B0EBC74072EB573203FB0CF734BFA2EB0B
:103CB000C742B2EBC74261EB57310CFB0EF7B0EBDA
:103CC000C70072EB57720CFB08F734BFA2EBC702B8
:103CD000B2EBC70261EB5771039F4FEA816141EA82
:103CE000921104EBCC044FEAD1374FEA826206FB13
:103CF00007FC42EA90124FEA80604FEA1C4C0CFB32
:103D00000BF7D21B03FB0CF761EB07010CFB0EF763
:103D1000B0EB074072EB17420CFB08F734BFA2EB85
:103D20000742B2EB074261EB17414FEA8C554FEA6D
:103D3000910704EB9C2406FB07FC4FEA1C4C0CFB90
:103D40000BF7B0EBC74072EB573203FB0CF734BFF5
:103D5000A2EBC742B2EBC74261EB57310CFB0EF747
:103D6000B0EBC70072EB57720CFB08F734BFA2EB45
:103D7000C702B2EBC70261EB577115EB4C254FEA56
:103D8000816141EA92114FEA82624FEAD13742EAF9
:103D9000901206FB07FC44F100044FEA80604FEAF2
:103DA0001C4C0CFB0BF7D21B03FB0CF761EB070160
:103DB0000CFB0EF7B0EB074072EB17420CFB08F759
:103DC00034BFA2EB0742B2EB074261EB174115EBA0
:103DD0001C154FEA813141EA92414FEA823242EAB0
:103DE00090424FEA80304FEA0C7644F1000448EAF2
:103DF00003434EEA0B484FF0000EB2EB080C71EB98
:103E0000030724BF624639464EEB0E0E4FF0000BFF
:103E10000018524149414BEB0B0BB2EB080C71EB14
:103E200003077BF1000B24BF624639464EEB0E0EB2
:103E30004FF0000B0018524149414BEB0B0BB2EB1A
:103E4000080C71EB03077BF1000B24BF6246394677
:103E50004EEB0E0E51EA020718BF46F0010616EBB4
:103E60000E7655F1000254F1000103D5BDE8890139
:103E7000BDE80088BDE88901BDE80048B619524197
:103E800041EB0101A3F10103704780807F7E7D7CBF
:103E90007B7A7978777676757473727171706F6EDC
:103EA0006E6D6C6C6B6A6A69686867666665646487
:103EB000636362616160605F5F5E5E5D5D5C5C5B11
:103EC0005B5A5A5959585857575656555555545480
:103ED000535352525251515050504F4F4F4E4E4DDE
:103EE0004D4D4C4C4C4B4B4B4A4A4A49494948482A
:103EF000484747474746464645454544444444436A
:103F000043434342424242414141000046EA0646A1
:103F1000A3F570534FEA164646EA42564FEAD222BC
:103F200042EA415210B54FEAD121A3F1010300F05A
:103F30002FF820F0004000F1020C00F0004701EBE8
:103F400000501146BCF5006F40EA070000D210BDDA
:103F5000BAF1000F0AD01CB503B44FF004004FF0C3
:103F600004014FF000000FBCBDE810404FF000010D
:103F7000BBF1010FB9BF04484FF0FF3103480021E6
:103F800040EA070010BD00BFFFFFEF7F0000F07F99
:103F9000002B9C4630D477002BD01CB54FEA370756
:103FA00003B44FF010004FF01001BAF1000F06D02B
:103FB000BCF1000FDCBF40F0080040F008014FF0FA
:103FC00000000FBCBDE810400BF1010BBBF1010F6D
:103FD00008BF5FEA170722BF12F1010211F10101C8
:103FE0004FF0004143F1000300F0004043EA0000BD
:103FF0007047F9D35708D0E746EA064613F1400F59
:104000004FEA16461FDD13F1200FDFBF16430A46A5
:10401000002120335B42BED0C3F1200746EA0646AA
:1040200002FA07F74FEA164646EA0706C3F12007E9
:1040300022FA03F201FA07F721FA03F14FF0000325
:1040400042EA0702A7E746EA020646EA06464FEAC0
:10405000164646EA0106BCBF46EA0646360C4FF055
:1040600000034FF000024FF0000194E72DE9804C6F
:104070009A46934670B491E8380007C831EA400C7C
:1040800048BF34EA430C03D5FFF7A3FDFFF780FFD9
:10409000F0BCBDE8008C2DE9804C9A46934670B484
:1040A00091E8380007C831EA400C48BF34EA430CB5
:1040B00003D5FFF78EFDFFF729FFF0BCBDE8008CAC
:1040C0002DE9804C9A46934670B491E8380007C8B1
:1040D00010F0804F08BF13F0804F03D100F01AF8A2
:1040E000FFF756FFF0BCBDE8008C2DE9804C9A46E6
:1040F000934670B491E8380007C810F0804F08BFAD
:1041000013F0804F03D100F005F8FFF7FFFEF0BC7D
:10411000BDE8008C20F07F4780EA030023F07F4C4D
:1041200007EB0C03A3F57C5300F00040A3F1FE0362
:1041300092F0000F00F0B38095F0000F00F0778050
:104140002DE901494FEA11404FEA144621EA00489F
:1041500000FB06FC24EA064708FB06F607FB08F806
:1041600000FB07F718EB06484CEB164C4FEA124BD6
:1041700018EB07484FEA15464CEB174022EA0B4E66
:104180000BFB06FC25EA06470EFB06F607FB0EFEB8
:104190000BFB07F71EEB064E4CEB164C4FF00006E0
:1041A0001EEB074E4CEB174B18EB0B0840F10000D1
:1041B00018EB0E0B58EB000840F100008F1A4FF07F
:1041C00000013CBFC943661B14BFB5EB040C0021C2
:1041D0003CBFC943F61B4FEA17444EEA8E0E27EA4E
:1041E00004454FEA1C4704FB07622CEA074C05FB19
:1041F00007F70CFB05F604FB0CFC16EB074642EB3D
:10420000174216EB0C4642EB1C421BEB060658EB22
:104210000202414146EA9E0601D5BDE80189B61970
:10422000524141EB0101A3F10103BDE801894FEACD
:1042300014454FEA114724EA054621EA074C05FBDD
:1042400007F406FB07F70CFB06F105FB0CFC11EB72
:10425000074144EB17444FEA124711EB0C4144EB82
:104260001C4422EA074C05FB07F206FB07F70CFB90
:1042700006F605FB0CFC16EB074642EB174216EB65
:104280000C4642EB1C456A1854F1000148BF7047C8
:10429000B619524141EB0101A3F10103704795F0BA
:1042A000000F37D04FEA11424FEA144721EA024685
:1042B00024EA074C02FB07F106FB07F70CFB06F4A8
:1042C00002FB0CFC14EB074441EB17414FEA154786
:1042D00014EB0C4441EB1C4125EA074C02FB07F5AB
:1042E00006FB07F70CFB06F602FB0CFC16EB074679
:1042F00045EB174516EB0C4645EB1C42121951F1E4
:10430000000148BF7047B619524141EB0101A3F1CA
:10431000010370474FEA14454FEA114724EA054666
:1043200021EA074C05FB07F106FB07F70CFB06F239
:104330004FF0000605FB0CFC12EB074241EB174166
:1043400012EB0C4251EB1C4148BF7047921841EBF5
:104350000101A3F1010370470000000010B501F056
:1043600003FBBDE8104001F08FB90021C160704728
:1043700025482021C0F8A011D0F8A01111F0200F7D
:1043800005D000BFD0F8A01111F0400FFAD00221E3
:10439000C0F804110022C0F8A821C0F8AC21012106
:1043A000C0F80C110B23C0F88430AA23C0F88C305D
:1043B0004FF0550CC0F88CC0C0F88010C0F88C309D
:1043C000C0F88CC0D0F8881011F0806FFAD00321AB
:1043D000C0F88010C0F88C30C0F88CC0D0F88810BD
:1043E00011F0407FFAD00521C0F808110749C0F844
:1043F000C410C0F8C821016843F23A0221F47041A8
:10440000114301607047000000C00F40DE872804A0
:1044100010B54FF0804003F083FB08A1084800F07E
:104420006DFA08E00648303800F06CF918B104481D
:1044300000F0F6F904464B2CF4D110BD2B2B2B00C9
:10444000A8130010704700002DE9F047B2B0824673
:104450000F4624A124A0FCF73DFB054635B926A054
:1044600000F045FF002032B0BDE8F0872DE09DF858
:104470000000232800D128E06846FCF78FFB0646A1
:1044800000200BE01DF800100D2903D01DF80010CE
:104490000A2902D100210DF80010401CB042F1D3CE
:1044A000E8464FF03B0949464046FCF749FB0446C5
:1044B00000BF4CB1611C3846FCF74CFB002020705B
:1044C00069465046FCF746FB00BF2A46C8216846AD
:1044D000FEF7B0FE0028CAD12846FCF72DFA0120CD
:1044E000C1E70000720000002F6C6F63616C2F2E1B
:1044F000636F6E66696700006E6F20636F6E66693A
:10450000672066696C65207765726520666F756ED9
:104510006400000070B504460D46002605B9C825A4
:1045200005E0044800F07CF92070641C761CB5425C
:10453000F7D170BDA813001010B50024224602A1C7
:10454000044800F0DBF910BD415449442025690DB1
:1045500000000000A813001070B504460D462E465A
:1045600000BF00BF2068401C20B9242207A116A06C
:1045700001F0EAF800BF1EB1E1686068086002E07F
:1045800021696068086000BF70BD00006D626564ED
:104590002F5441524745545F4C5043313736382FE2
:1045A0005441524745545F4E58502F54415247454D
:1045B000545F4C5043313736582F6770696F5F6FC7
:1045C000626A6563742E68006F626A2D3E70696E60
:1045D00020213D202850696E4E616D65294E4300B3
:1045E00070B504460D4629462046FFF7B5FF204624
:1045F00070BD70B504460068416A2046884720684F
:10460000012200210369204698470546B0F1FF3F8B
:10461000206811D0022203690021204698470646EF
:104620002068002229460369204698472068816A4D
:1046300020468847304670BD816A204688474FF043
:10464000FF3070BD7047704770B50546174C16486F
:1046500028602068002804BF201D2060261DB0426D
:1046600004D059221249134801F06EF80021124873
:10467000D4F8003010228C4650F82140AC4208BFDC
:1046800040F821C0491C521EF6D10849002B12BF28
:104690000868081D0860B04204D059220449054842
:1046A00001F052F8284670BD24840000C8000010B4
:1046B000888500007485000084010010001D02F050
:1046C00021BD10B50C46001D02F070FE204610BD45
:1046D00010B500EB011000F10C04806928B940F21C
:1046E000E7120549054801F02FF8E0680168204607
:1046F000BDE8104008470000E9850000E48500009F
:104700007047704770B504460068016820468847C6
:10471000201D02F07FFE054620684168204688473C
:10472000284670BD2DE9F0478A461B4940F8041B16
:10473000002140F8041B1C46914640F8041B02234C
:104740001022164900F044FADFF85480A0F10C055D
:104750000026046205EB061000F10C04114FE1681D
:10476000204600291CBF89688847761CC4F80C8045
:104770002760022EEED34A465146281D02F0DEFC89
:10478000281DE96A02F0DCFB2A460749281D02F0D1
:1047900095FD2846BDE8F087588400006B43000073
:1047A000D8850000594B0000D14600000021FCF7DD
:1047B00083B870477047000010B51C46029BFFF796
:1047C000B1FF2146303000F0B3F8044940F8301D05
:1047D0005C3141633C39016310BD0000708400000E
:1047E00010B50B4940F8341B5C3140F804193C39D2
:1047F000016000F0BDF830380446064940F80C1B53
:10480000022310220449FCF7DFFA204610BD000005
:104810007084000058840000F57B00000020704781
:1048200070B504460068416A204688476069FCF715
:10483000C2F8606900F091F905462068816A204657
:104840008847284670BD2DE9F041054600680F46AF
:104850000C468E18416A28468847B4420AD0286818
:10486000026B28469047B0F1FF3F03D004F8010BDC
:10487000B442F4D12868816A28468847E01BBDE825
:10488000F08100207047002070470FB470B50446D7
:104890000068416A2046884706AD6069FCF78BF8DE
:1048A0002A4660690599FBF73BFF05462068816A47
:1048B00020468847284670BC5DF814FB2DE9F0417E
:1048C000054600680F460C468E18416A2846884700
:1048D000B4420AD0286814F8011BC26A28469047DF
:1048E000B0F1FF3F18BFB442F4D12868816A28466E
:1048F0008847E01BBDE8F081002070470FB470B519
:1049000004460068416A2046884706AD6069FCF7A6
:1049100052F82A4660690599FBF7D8FD05462068DC
:10492000816A20468847284670BC5DF814FB000069
:1049300010B584B000F0A8F804460A4820603C3066
:10494000606000206061224607A16846FBF7C4FD55
:1049500006A16846FCF7BEF86061FFF727FF04B0C8
:10496000204610BDDC8400003A257000772B000043
:1049700010B50446054820603C3060606069FBF774
:10498000DBFF2046BDE8104000F090B8DC8400005A
:10499000007B704770B506460D46154803F00CF9CC
:1049A00014480468F4B1A068C8B12A463146FCF73F
:1049B00014F9A0B9A068FCF7F1F8A8420FD10C488F
:1049C0000168002904BF011D0160001D814204D05F
:1049D00059220949094800F0B7FE204670BD6468B5
:1049E000002CE0D1024803F0E7F8002070BD000081
:1049F0006C010010680100108885000074850000BB
:104A000070B504460B480026A160C4E900060D46B7
:104A10002273094803F0D0F8002D08BF666003D068
:104A20000648016861600460034803F0C5F8204649
:104A300070BD0000288500006C01001068010010A6
:104A400010B504460D4820600D4803F0B5F8A06885
:104A500078B10C490868A04204BF6068086008D0BB
:104A60004168A14203D008464968A142FBD1616870
:104A70004160034803F0A0F8204610BD28850000DF
:104A80006C0100106801001010B5064A40F8042BB4
:104A90000022FFF7B5FF044940F8041D343141609E
:104AA00010BD0000248400003885000010B5001DF2
:104AB000FFF7C6FFBDE81040001FFFF7C5BD10B5EA
:104AC0000446406828B1FFF763FF012804BF60680F
:104AD00010BD002010BD10B50446406810B1FFF7AE
:104AE00057FF08B1002010BD6068002818BF001FE4
:104AF00010BD4068002818BF0120704710B54068FD
:104B0000002808BF10BDFFF743FF00280CBF01209D
:104B1000002010BD0068704710B5044600202060DA
:104B2000606008782F280DD1487858B14B1C0021BF
:104B30002360226810782F2806D038B1501C491CF9
:104B40002060F6E7204610BD501C20601846FFF795
:104B500021FF6060204610BD7047FBF7DDBE704747
:104B60003038FFF7ABBD3038FFF7ABBD70474900B9
:104B700050EAC12018BF04204A0D18BF40F00100C0
:104B800040F2FF72B2EB515F08BF40F00200012813
:104B900008BF0520704700002DE9F0410A4D0E4680
:104BA00007462C682868B0F1805F07D221466C0662
:104BB000C4222046FCF75CF82046286004EB8700FE
:104BC0000664BDE8F081000008ED00E001207047B8
:104BD0002DE9F0411C4617460E00804607D00546D9
:104BE00002E02846B0473D442046641EF9D24046C4
:104BF000BDE8F0810020FDF725BAEFF3148070477F
:104C0000EFF305807047EFF31080704740F20132F8
:104C100000204FF0E04103F05ABA0000024A0020A1
:104C2000110703F054BA000001FDFFFF10B5044660
:104C3000D1E9000100F002F8206010BDF8B504468B
:104C40000D466A4600F08CFB00987E3000900028EC
:104C50001EDC002213462046294603F01BF817D01D
:104C6000002140F608004FF0000006462046294685
:104C700002F0CAFF044640F6080006EA00014FF0C1
:104C8000000034F0004004BF0220FEF7ECFC29E0F5
:104C90000098FF2828DB002108464FF0000000F4B0
:104CA0004006002213462046294603F0B9F88CBF7F
:104CB000002501250220FEF7D6FC4FF0FF4446B147
:104CC000002D0CBF4FF400004FF48000B04218BF1D
:104CD000084C042108464FF00000002D04BF84F06A
:104CE0000040F8BD2046F8BD20462946BDE8F84002
:104CF00002F08ABFFFFF7F7F38B54FF416500023C4
:104D0000134A511E00901348FFF756FD0446124AFD
:104D10001249FFF75BFF4FF4165000230C4A083A84
:104D2000511E00900E48FFF747FD04460A4A0B4902
:104D3000FFF74CFF0B4C064D353518212046FBF78D
:104D4000C9FF2946204600F093FB00BF38BD000094
:104D50000BC009207813001000000000E14700009C
:104D6000C41300101014001010B504460A46D4E90C
:104D70000003194600F04EFCC4E9000110BD00001C
:104D8000074810B5007848B102F0B8F830B10549CD
:104D900000EB400001EB4010603810BD024810BD30
:104DA000ED000010180D00103C14001002486A4677
:104DB00020F00700704700009F150010F0B5034673
:104DC0000E4602F0004030B122F00040C01D20F03D
:104DD0000702102503E0D01C20F003020C250AB9BD
:104DE0000120F0BD5019B04201D90120F9E759194D
:104DF00019609F195F609A60BF1A05E08C18BC4269
:104E000000D902E00C602146F8E700BF00200860EE
:104E100000BFE6E730380A2801D2012070470020A1
:104E20007047000005490978002905D000684FF651
:104E3000FF71DFF80CC000DF70470000ED000010CC
:104E40008566000070B5094C054660690C2802D3E0
:104E500007A000F04CFA0D48616900EB0110491CF5
:104E60002860616101F076FB012070BD2001001017
:104E70004E6F7420656E6F756768207374646C691B
:104E800062206D7574657865730A0000B8120010B1
:104E900004490978002903D00068DFF80CC000DF5E
:104EA00070470000ED0000106965000010B500F0CB
:104EB0005CFD10BD0328BCBF0020704707490022DD
:104EC00001EB800151F80C0C41F80C2C002804BFB8
:104ED0004FF0FF30704701684968084784010010AF
:104EE0000328BCBF00207047064901EB800050F842
:104EF0000C0C002804BF4FF0FF307047016889692F
:104F000008470000840100100328BCBF012070473F
:104F1000064901EB800050F80C0C002804BF4FF04C
:104F2000FF3070470168C96808470000840100101D
:104F30002DE9F0430E4683B081466B49FBF7F2FE44
:104F40006B4D6A4C6F1E20B36A494846FBF7EAFE78
:104F500000282ED068494846FBF7E4FE002838D0E8
:104F6000664C2068002804BF201D2060251DA84233
:104F700004D059226249634800F0E6FB2168624F81
:104F8000002400BF57F8240098B3641C102CF9D3F8
:104F900032E0206848B92A4639465C4802F0CEF82B
:104FA0004FF41651594801F0CBFF03B00020BDE883
:104FB000F083206848B92A463946544802F0BEF8C2
:104FC0004FF41651514801F0BBFF03B00120BDE87A
:104FD000F083206848B92A4639464C4802F0AEF8BA
:104FE0004FF41651494801F0ABFF03B00220BDE871
:104FF000F083FFE7102C11D34048002904BF011DA6
:1050000001600068A84204D059223D493D4800F0A3
:105010009BFB03B04FF0FF30BDE8F0834FF0FF3053
:1050200047F824003548002904BF011D01600068CD
:10503000A84204D059223249324800F085FB99F841
:1050400000004FF000083A2810D049466846FFF7A4
:1050500063FD6846FFF74DFDA0B36846FFF74EFDC0
:105060000028684609D0FFF736FD23E06A4628A1EC
:105070004846FBF75DFB00981CE0FFF720FD08B3F6
:1050800016F0020F18BF022523D000BF16F00C0F38
:1050900018BF45F4007516F0040F18BF45F480657D
:1050A00006466846FFF736FD014630682A468368A3
:1050B0003046984700281FBF47F82400E01C03B083
:1050C000BDE8F08347F8248003B04FF0FF30BDE81F
:1050D000F08316F0040F18BF0125D7D116F0080F82
:1050E00014BF09250025D1E766810000D00000101B
:1050F00003C009206D81000075810000C800001008
:10510000888500007485000084010010D80000101C
:105110003A25700070B514460D46032812DA11487E
:10512000006848B9104A1148511E02F007F84FF4C0
:1051300016510E4801F004FF0C4801F0E3FF2870FF
:1051400001200DE00A4901EB800050F80C0C00280A
:1051500004BF4FF0FF3070BD01688B682946984747
:10516000201A70BDD000001003C00920D800001024
:10517000840100100328BCBF00207047064A02EBE0
:10518000800050F80C0C002804BF4FF0FF3070472F
:1051900002681369002218478401001070B5144694
:1051A0000E46032818DA1448006848B9134A144810
:1051B000511E01F0C3FF4FF41651114801F0C0FE1B
:1051C0000025002C06D9715D0D4802F0EFF86D1C2A
:1051D000AC42F8D820460DE00A4901EB800050F8B7
:1051E0000C0C002804BF4FF0FF3070BD01680B6845
:1051F00031469847201A70BDD000001003C0092026
:10520000D80000108401001070B5EFF31080012168
:1052100021EA000080F0010572B60D4C606800289C
:1052200008BF25706068B0F1FF3F04D135220949FD
:1052300009A000F089FA606828B125B9392205492A
:105240000FA000F081FA6068401C606070BD000033
:1052500060010010AC870000696E74657272757031
:10526000745F656E61626C655F636F756E746572A5
:10527000203C2055494E5433325F4D4158000000C8
:10528000696E74657272757074735F64697361625C
:105290006C65640010B50E4C6068002808BF10BD36
:1052A000EFF31080012121EA000090F0010F04D1FA
:1052B0004A22084908A000F047FA6068401E606072
:1052C0006068002806BF2078002810BD62B610BDB7
:1052D00060010010AC870000696E746572727570B1
:1052E00074735F64697361626C65640070470FB4C6
:1052F00010B503A9029800F00DFB012000F000F8A2
:1053000004460848FBF757FB0748FBF754FB00F03F
:1053100029FB002818BF01F00DFE002C18BF00F07B
:105320003DFAFEE7F0140010441500100168002952
:1053300001DCFCF7A2BA491E016041684A1C4260C8
:10534000087870478A68002A01DCFCF784BB521E8B
:105350008A604A68C0B2531C4B60107070470000EE
:1053600010B5144600222260114A21F000439342F6
:10537000A8BF10BD53EA000208BF10BDB3F5801FDF
:10538000A8BF226807DA362202F0A1FE6FF03502CC
:1053900021F000432260DFF81CC06FF31E510CEBBC
:1053A00023531A4441F0FF5141F00051226010BDD7
:1053B0000000F07F02FCFFFF70B5044600680D4658
:1053C000B0F1FF3F04D12C2209490AA000F0BCF93A
:1053D00045B1012D18BF70BDA06801686268114316
:1053E000016070BDA068016862689143F8E7000041
:1053F000348600006F626A2D3E70696E20213D2068
:105400002850696E4E616D65294E430070B50C469B
:1054100005460160B1F1FF3F08BF70BD0021204685
:1054200000F086FC04F01F00012101FA00F0686022
:1054300024F01F0000F11801E960091D29610839F5
:105440006961A86070BD70B5032605460C46FFF77C
:10545000DDFFB4F1FF3F08BF70BD00212846FFF714
:10546000ABFF31462846BDE8704000F059B8000057
:1054700070B50D4604460226FFF7C8FFB5F1FF3FA1
:1054800008BF70BD2068B0F1FF3F04D12422084955
:10549000084800F059F92169606808600121204638
:1054A000FFF78AFF31462046BDE8704000F038B86B
:1054B0008C860000085500002DE9F04104460E4698
:1054C00002271546FFF7A2FFB6F1FF3F08BFBDE870
:1054D000F0812068B0F1FF3F04D1242209490AA0DD
:1054E00000F032F96068002D14BFE168216908609E
:1054F00001212046FFF760FF39462046BDE8F04114
:1055000000F00EB88C8600006F626A2D3E70696EE6
:1055100020213D202850696E4E616D65294E430063
:10552000006800F033BCFEB504460E4604B12EB14F
:10553000802000909DE8070003B0F0BD207801288E
:1055400004D0802000909DE80700F5E701A92046DF
:1055500000F026F80546042D04D0002000909DE8B8
:105560000700E9E7102000909DE80700E4E770B528
:1055700004460E46154604B10DB1802070BD20785A
:10558000012801D08020F9E7204600F0A9FE08B9E3
:105590008120F3E73146204600F031F80020EDE7A6
:1055A00070B505460E462C46A08930B3618904F1DA
:1055B000100050F8210030606078022805D10021E9
:1055C000204601F00DF901F0F9F800BF04F10C00DC
:1055D000D0E85F0F401E81B204F10C00C0E8521FFA
:1055E000002AF3D16089401C80B26081E189884241
:1055F00001D100206081042070BD0020FCE770B55F
:1056000004460D4626462946304601F0E9F801F0E9
:10561000D5F870BD2DE9F04106460C4640F2FF7505
:10562000174635EA14502BD000221346304602F0BC
:1056300031FB25D03A463046214602F048FD064669
:105640000C4635EA145010D000221346304602F0C2
:1056500021FB15D10220FEF706F8FFF7DFFA0A4614
:10566000214662F31E01BDE8F0810220FDF7FBFF39
:10567000FFF7CCFA0A46214662F31E01BDE8F0812D
:1056800030462146BDE8F08110B5ADF5167D66A91E
:1056900086A8FEF7D9FE20B186A8649066A865901A
:1056A00003E001200DF5167D10BD00211C48FEF71A
:1056B00097FF1C4802F034FA01211948FEF790FFC9
:1056C000194802F02DFA00211548FEF789FF174806
:1056D00017490860174848601748886000241DE093
:1056E0001648FFF70FF840B1C8216846FEF712FFD1
:1056F0006A4613A11348FFF701F912483038FFF743
:1057000001F858B132AA0EA10E48FFF7BEF832A830
:10571000025D0BA109483030FFF7F0F8E0E7000028
:1057200010140010CDCCCC3E3333333F394500004C
:1057300028140010454400001144000078130010A4
:1057400025730000F413001070B514460D4606468C
:10575000FFF75AFD23462A46314603A000F0AEF873
:10576000BDE8704000F01AB86D6265642061737323
:105770006572746174696F6E206661696C65643A04
:105780002025732C2066696C653A2025732C206CCB
:10579000696E65202564200A0000000098B0FFF7BC
:1057A00033FD3B496846FFF763FE3A4906A8FFF719
:1057B0005FFE39490CA8FFF75BFE384912A8FFF7D6
:1057C00057FE0098B0F1FF3F04D12422344935A0A0
:1057D000FFF7BAFF0399019808600698B0F1FF3F00
:1057E00004D124222E492FA0FFF7AEFF0A99079873
:1057F00008600C98B0F1FF3F04D12422284929A069
:10580000FFF7A2FF10990D9808601298B0F1FF3FC2
:1058100004D12422224923A0FFF796FF159913985B
:105820000860962002F08EF90098B0F1FF3F04D195
:1058300024221B491BA0FFF787FF049901980860E9
:105840000698B0F1FF3F04D12422154915A0FFF7B7
:105850007BFF0999079808600C98B0F1FF3F04D1CD
:1058600024220F490FA0FFF76FFF0F990D980860D2
:105870001298B0F1FF3F04D12422094909A0FFF793
:1058800063FF169913980860962002F05BF998E779
:1058900032C0092034C0092035C0092037C0092092
:1058A0008C8600006F626A2D3E70696E20213D205B
:1058B0002850696E4E616D65294E43000FB470B576
:1058C000A0B025AC249DFFF79FFC224629466846E0
:1058D000FAF7EAFD051E10DD0B48006820B90B4AF7
:1058E0000B48511E01F02AFC00246E460848315D29
:1058F00001F05CFD641CAC42F8DBFFF7CBFC20B090
:1059000070BC5DF814FB0000D000001003C009203B
:10591000D800001070B5A0B00C460546FFF774FC27
:10592000224629466846FAF7BFFD051E10DD0A48E3
:10593000006820B9094A0A48511E01F0FFFB002403
:105940006E460748315D01F031FD641CAC42F8DB66
:10595000FFF7A0FC20B070BDD000001003C00920EC
:10596000D800001001F0DEBA7047704710B5FFF79D
:105970004AF910B9FFF744F908B1822010BDFFF7CA
:105980003CF900F0010010B901F0DEFDF6E700BFC0
:10599000DFF808C000DF00BFF0E700004975000035
:1059A00010B5FFF730F938B9FFF72AF920B9FFF73A
:1059B00024F900F0010010B90448007810BD00BFC0
:1059C000DFF80CC000DF00BFF8E70000ED000010BA
:1059D000C175000000B589B0FFF715F910B9FFF7E0
:1059E0000FF910B1822009B000BDFFF7D9FF50B9FF
:1059F0003248006838B131480068406818B12F4912
:105A0000096848688047FFF7F8F800F0030030B1F4
:105A1000012828D0022828D0032848D13FE009A82F
:105A200080F3098800BF2648007800F0010020B10B
:105A3000022080F3148800BF04E0032080F3148860
:105A400000BF00BF00BF00BF00BFBFF34F8F00BF4C
:105A500000BF00BF00BF00BF00BFBFF36F8F00BF1C
:105A600000BF00BF23E0FF20BDE71548007800F02D
:105A7000010098B9032080F3148800BF00BF00BF65
:105A800000BFBFF34F8F00BF00BF00BF00BF00BF0C
:105A900000BFBFF36F8F00BF00BF00BF07E0084823
:105AA000007800F0010008B1FF209CE700BF00BFB4
:105AB00000BFDFF810C000DF00BF94E7F80000105F
:105AC000BC820000CD75000030B589B004460D469B
:105AD000FFF799F810B9FFF793F838B12946204637
